{
  "contractName": "Library",
  "abi": [
    {
      "constant": true,
      "inputs": [
        {
          "name": "",
          "type": "uint256"
        }
      ],
      "name": "bookToOwner",
      "outputs": [
        {
          "name": "",
          "type": "address"
        }
      ],
      "payable": false,
      "stateMutability": "view",
      "type": "function"
    },
    {
      "constant": true,
      "inputs": [
        {
          "name": "",
          "type": "address"
        },
        {
          "name": "",
          "type": "uint256"
        }
      ],
      "name": "bookCheckedOutTo",
      "outputs": [
        {
          "name": "",
          "type": "bool"
        }
      ],
      "payable": false,
      "stateMutability": "view",
      "type": "function"
    },
    {
      "constant": true,
      "inputs": [
        {
          "name": "",
          "type": "address"
        }
      ],
      "name": "librarians",
      "outputs": [
        {
          "name": "",
          "type": "bool"
        }
      ],
      "payable": false,
      "stateMutability": "view",
      "type": "function"
    },
    {
      "constant": true,
      "inputs": [
        {
          "name": "",
          "type": "uint256"
        },
        {
          "name": "",
          "type": "uint256"
        }
      ],
      "name": "bookHistory",
      "outputs": [
        {
          "name": "action",
          "type": "string"
        },
        {
          "name": "time",
          "type": "uint256"
        },
        {
          "name": "owner",
          "type": "address"
        }
      ],
      "payable": false,
      "stateMutability": "view",
      "type": "function"
    },
    {
      "constant": true,
      "inputs": [
        {
          "name": "",
          "type": "uint256"
        }
      ],
      "name": "books",
      "outputs": [
        {
          "name": "title",
          "type": "string"
        }
      ],
      "payable": false,
      "stateMutability": "view",
      "type": "function"
    },
    {
      "constant": true,
      "inputs": [
        {
          "name": "",
          "type": "uint256"
        }
      ],
      "name": "bookInLibrary",
      "outputs": [
        {
          "name": "",
          "type": "bool"
        }
      ],
      "payable": false,
      "stateMutability": "view",
      "type": "function"
    },
    {
      "constant": true,
      "inputs": [],
      "name": "owner",
      "outputs": [
        {
          "name": "",
          "type": "address"
        }
      ],
      "payable": false,
      "stateMutability": "view",
      "type": "function"
    },
    {
      "constant": true,
      "inputs": [
        {
          "name": "",
          "type": "uint256"
        }
      ],
      "name": "bookHistories",
      "outputs": [
        {
          "name": "action",
          "type": "string"
        },
        {
          "name": "time",
          "type": "uint256"
        },
        {
          "name": "owner",
          "type": "address"
        }
      ],
      "payable": false,
      "stateMutability": "view",
      "type": "function"
    },
    {
      "constant": false,
      "inputs": [
        {
          "name": "newOwner",
          "type": "address"
        }
      ],
      "name": "transferOwnership",
      "outputs": [],
      "payable": false,
      "stateMutability": "nonpayable",
      "type": "function"
    },
    {
      "inputs": [],
      "payable": false,
      "stateMutability": "nonpayable",
      "type": "constructor"
    },
    {
      "anonymous": false,
      "inputs": [
        {
          "indexed": false,
          "name": "title",
          "type": "string"
        }
      ],
      "name": "NewBook",
      "type": "event"
    },
    {
      "anonymous": false,
      "inputs": [
        {
          "indexed": true,
          "name": "previousOwner",
          "type": "address"
        },
        {
          "indexed": true,
          "name": "newOwner",
          "type": "address"
        }
      ],
      "name": "OwnershipTransferred",
      "type": "event"
    },
    {
      "constant": false,
      "inputs": [
        {
          "name": "_title",
          "type": "string"
        }
      ],
      "name": "createBook",
      "outputs": [],
      "payable": false,
      "stateMutability": "nonpayable",
      "type": "function"
    },
    {
      "constant": false,
      "inputs": [
        {
          "name": "_bookId",
          "type": "uint256"
        }
      ],
      "name": "addBookToLibrary",
      "outputs": [],
      "payable": false,
      "stateMutability": "nonpayable",
      "type": "function"
    },
    {
      "constant": false,
      "inputs": [
        {
          "name": "_bookId",
          "type": "uint256"
        }
      ],
      "name": "removeBookFromLibrary",
      "outputs": [],
      "payable": false,
      "stateMutability": "nonpayable",
      "type": "function"
    },
    {
      "constant": false,
      "inputs": [
        {
          "name": "_bookId",
          "type": "uint256"
        },
        {
          "name": "_bookUser",
          "type": "address"
        }
      ],
      "name": "checkBookOut",
      "outputs": [],
      "payable": false,
      "stateMutability": "nonpayable",
      "type": "function"
    },
    {
      "constant": false,
      "inputs": [
        {
          "name": "_bookId",
          "type": "uint256"
        },
        {
          "name": "_bookUser",
          "type": "address"
        }
      ],
      "name": "checkBookIn",
      "outputs": [],
      "payable": false,
      "stateMutability": "nonpayable",
      "type": "function"
    },
    {
      "constant": false,
      "inputs": [
        {
          "name": "_bookId",
          "type": "uint256"
        },
        {
          "name": "_index",
          "type": "uint256"
        }
      ],
      "name": "viewBookHistory",
      "outputs": [
        {
          "name": "",
          "type": "string"
        },
        {
          "name": "",
          "type": "uint256"
        },
        {
          "name": "",
          "type": "address"
        }
      ],
      "payable": false,
      "stateMutability": "nonpayable",
      "type": "function"
    },
    {
      "constant": false,
      "inputs": [
        {
          "name": "_bookId",
          "type": "uint256"
        },
        {
          "name": "_action",
          "type": "string"
        }
      ],
      "name": "addBookHistory",
      "outputs": [],
      "payable": false,
      "stateMutability": "nonpayable",
      "type": "function"
    },
    {
      "constant": false,
      "inputs": [
        {
          "name": "_bookId",
          "type": "uint256"
        },
        {
          "name": "_newOwner",
          "type": "address"
        }
      ],
      "name": "changeBookOwner",
      "outputs": [],
      "payable": false,
      "stateMutability": "nonpayable",
      "type": "function"
    }
  ],
  "bytecode": "0x608060405234801561001057600080fd5b50336000806101000a81548173ffffffffffffffffffffffffffffffffffffffff021916908373ffffffffffffffffffffffffffffffffffffffff160217905550336000806101000a81548173ffffffffffffffffffffffffffffffffffffffff021916908373ffffffffffffffffffffffffffffffffffffffff1602179055506117a3806100a06000396000f3006080604052600436106100f1576000357c0100000000000000000000000000000000000000000000000000000000900463ffffffff16806305b6ea91146100f65780630707d14c1461014357806326823f95146101b0578063502d4e0e146102155780635d40e3c11461026257806365d70901146102bd57806368744046146103a75780636c5b694e1461044d5780636e8bce68146104c05780638da5cb5b146105055780639278660d1461055c578063a3710d181461063c578063b9f72b7d14610726578063c111c0471461078f578063da51ff68146107bc578063f2fde38b146107e9578063fad7c2eb1461082c575b600080fd5b34801561010257600080fd5b5061014160048036038101908080359060200190929190803573ffffffffffffffffffffffffffffffffffffffff169060200190929190505050610879565b005b34801561014f57600080fd5b5061016e6004803603810190808035906020019092919050505061093c565b604051808273ffffffffffffffffffffffffffffffffffffffff1673ffffffffffffffffffffffffffffffffffffffff16815260200191505060405180910390f35b3480156101bc57600080fd5b506101fb600480360381019080803573ffffffffffffffffffffffffffffffffffffffff1690602001909291908035906020019092919050505061096f565b604051808215151515815260200191505060405180910390f35b34801561022157600080fd5b5061026060048036038101908080359060200190929190803573ffffffffffffffffffffffffffffffffffffffff16906020019092919050505061099e565b005b34801561026e57600080fd5b506102a3600480360381019080803573ffffffffffffffffffffffffffffffffffffffff169060200190929190505050610aed565b604051808215151515815260200191505060405180910390f35b3480156102c957600080fd5b506102f26004803603810190808035906020019092919080359060200190929190505050610b0d565b60405180806020018481526020018373ffffffffffffffffffffffffffffffffffffffff1673ffffffffffffffffffffffffffffffffffffffff168152602001828103825285818151815260200191508051906020019080838360005b8381101561036a57808201518184015260208101905061034f565b50505050905090810190601f1680156103975780820380516001836020036101000a031916815260200191505b5094505050505060405180910390f35b3480156103b357600080fd5b506103d260048036038101908080359060200190929190505050610c0b565b6040518080602001828103825283818151815260200191508051906020019080838360005b838110156104125780820151818401526020810190506103f7565b50505050905090810190601f16801561043f5780820380516001836020036101000a031916815260200191505b509250505060405180910390f35b34801561045957600080fd5b506104be60048036038101908080359060200190929190803590602001908201803590602001908080601f0160208091040260200160405190810160405280939291908181526020018383808284378201915050505050509192919290505050610ccc565b005b3480156104cc57600080fd5b506104eb60048036038101908080359060200190929190505050610de4565b604051808215151515815260200191505060405180910390f35b34801561051157600080fd5b5061051a610e04565b604051808273ffffffffffffffffffffffffffffffffffffffff1673ffffffffffffffffffffffffffffffffffffffff16815260200191505060405180910390f35b34801561056857600080fd5b5061058760048036038101908080359060200190929190505050610e29565b60405180806020018481526020018373ffffffffffffffffffffffffffffffffffffffff1673ffffffffffffffffffffffffffffffffffffffff168152602001828103825285818151815260200191508051906020019080838360005b838110156105ff5780820151818401526020810190506105e4565b50505050905090810190601f16801561062c5780820380516001836020036101000a031916815260200191505b5094505050505060405180910390f35b34801561064857600080fd5b506106716004803603810190808035906020019092919080359060200190929190505050610f1a565b60405180806020018481526020018373ffffffffffffffffffffffffffffffffffffffff1673ffffffffffffffffffffffffffffffffffffffff168152602001828103825285818151815260200191508051906020019080838360005b838110156106e95780820151818401526020810190506106ce565b50505050905090810190601f1680156107165780820380516001836020036101000a031916815260200191505b5094505050505060405180910390f35b34801561073257600080fd5b5061078d600480360381019080803590602001908201803590602001908080601f016020809104026020016040519081016040528093929190818152602001838380828437820191505050505050919291929050505061107d565b005b34801561079b57600080fd5b506107ba600480360381019080803590602001909291905050506112e4565b005b3480156107c857600080fd5b506107e7600480360381019080803590602001909291905050506113c2565b005b3480156107f557600080fd5b5061082a600480360381019080803573ffffffffffffffffffffffffffffffffffffffff1690602001909291905050506114a0565b005b34801561083857600080fd5b5061087760048036038101908080359060200190929190803573ffffffffffffffffffffffffffffffffffffffff1690602001909291905050506115f5565b005b3373ffffffffffffffffffffffffffffffffffffffff166003600084815260200190815260200160002060009054906101000a900473ffffffffffffffffffffffffffffffffffffffff1673ffffffffffffffffffffffffffffffffffffffff161415156108e657600080fd5b806003600084815260200190815260200160002060006101000a81548173ffffffffffffffffffffffffffffffffffffffff021916908373ffffffffffffffffffffffffffffffffffffffff1602179055505050565b60036020528060005260406000206000915054906101000a900473ffffffffffffffffffffffffffffffffffffffff1681565b60046020528160005260406000206020528060005260406000206000915091509054906101000a900460ff1681565b6000809054906101000a900473ffffffffffffffffffffffffffffffffffffffff1673ffffffffffffffffffffffffffffffffffffffff163373ffffffffffffffffffffffffffffffffffffffff161480610a425750600160003373ffffffffffffffffffffffffffffffffffffffff1673ffffffffffffffffffffffffffffffffffffffff16815260200190815260200160002060009054906101000a900460ff165b1515610a4d57600080fd5b600115156002600084815260200190815260200160002060009054906101000a900460ff161515141515610a8057600080fd5b6001600460008373ffffffffffffffffffffffffffffffffffffffff1673ffffffffffffffffffffffffffffffffffffffff168152602001908152602001600020600084815260200190815260200160002060006101000a81548160ff0219169083151502179055505050565b60016020528060005260406000206000915054906101000a900460ff1681565b600560205281600052604060002081815481101515610b2857fe5b906000526020600020906003020160009150915050806000018054600181600116156101000203166002900480601f016020809104026020016040519081016040528092919081815260200182805460018160011615610100020316600290048015610bd55780601f10610baa57610100808354040283529160200191610bd5565b820191906000526020600020905b815481529060010190602001808311610bb857829003601f168201915b5050505050908060010154908060020160009054906101000a900473ffffffffffffffffffffffffffffffffffffffff16905083565b600781815481101515610c1a57fe5b90600052602060002001600091509050806000018054600181600116156101000203166002900480601f016020809104026020016040519081016040528092919081815260200182805460018160011615610100020316600290048015610cc25780601f10610c9757610100808354040283529160200191610cc2565b820191906000526020600020905b815481529060010190602001808311610ca557829003601f168201915b5050505050905081565b600560008381526020019081526020016000206060604051908101604052808381526020014281526020016003600086815260200190815260200160002060009054906101000a900473ffffffffffffffffffffffffffffffffffffffff1673ffffffffffffffffffffffffffffffffffffffff16815250908060018154018082558091505090600182039060005260206000209060030201600090919290919091506000820151816000019080519060200190610d8b9291906116d2565b506020820151816001015560408201518160020160006101000a81548173ffffffffffffffffffffffffffffffffffffffff021916908373ffffffffffffffffffffffffffffffffffffffff1602179055505050505050565b60026020528060005260406000206000915054906101000a900460ff1681565b6000809054906101000a900473ffffffffffffffffffffffffffffffffffffffff1681565b600681815481101515610e3857fe5b9060005260206000209060030201600091509050806000018054600181600116156101000203166002900480601f016020809104026020016040519081016040528092919081815260200182805460018160011615610100020316600290048015610ee45780601f10610eb957610100808354040283529160200191610ee4565b820191906000526020600020905b815481529060010190602001808311610ec757829003601f168201915b5050505050908060010154908060020160009054906101000a900473ffffffffffffffffffffffffffffffffffffffff16905083565b60606000806005600086815260200190815260200160002084815481101515610f3f57fe5b90600052602060002090600302016000016005600087815260200190815260200160002085815481101515610f7057fe5b9060005260206000209060030201600101546005600088815260200190815260200160002086815481101515610fa257fe5b906000526020600020906003020160020160009054906101000a900473ffffffffffffffffffffffffffffffffffffffff16828054600181600116156101000203166002900480601f0160208091040260200160405190810160405280929190818152602001828054600181600116156101000203166002900480156110695780601f1061103e57610100808354040283529160200191611069565b820191906000526020600020905b81548152906001019060200180831161104c57829003601f168201915b505050505092509250925092509250925092565b6000600160076020604051908101604052808581525090806001815401808255809150509060018203906000526020600020016000909192909190915060008201518160000190805190602001906110d69291906116d2565b505050039050600560008281526020019081526020016000206060604051908101604052806040805190810160405280600781526020017f637265617465640000000000000000000000000000000000000000000000000081525081526020014281526020013373ffffffffffffffffffffffffffffffffffffffff1681525090806001815401808255809150509060018203906000526020600020906003020160009091929091909150600082015181600001908051906020019061119d9291906116d2565b506020820151816001015560408201518160020160006101000a81548173ffffffffffffffffffffffffffffffffffffffff021916908373ffffffffffffffffffffffffffffffffffffffff160217905550505050336003600083815260200190815260200160002060006101000a81548173ffffffffffffffffffffffffffffffffffffffff021916908373ffffffffffffffffffffffffffffffffffffffff1602179055507fc2e104ecce19a0803ee53892a547f5e1177e774af033f4f875a99ec2ce899cbf826040518080602001828103825283818151815260200191508051906020019080838360005b838110156112a657808201518184015260208101905061128b565b50505050905090810190601f1680156112d35780820380516001836020036101000a031916815260200191505b509250505060405180910390a15050565b6000809054906101000a900473ffffffffffffffffffffffffffffffffffffffff1673ffffffffffffffffffffffffffffffffffffffff163373ffffffffffffffffffffffffffffffffffffffff1614806113885750600160003373ffffffffffffffffffffffffffffffffffffffff1673ffffffffffffffffffffffffffffffffffffffff16815260200190815260200160002060009054906101000a900460ff165b151561139357600080fd5b60016002600083815260200190815260200160002060006101000a81548160ff02191690831515021790555050565b6000809054906101000a900473ffffffffffffffffffffffffffffffffffffffff1673ffffffffffffffffffffffffffffffffffffffff163373ffffffffffffffffffffffffffffffffffffffff1614806114665750600160003373ffffffffffffffffffffffffffffffffffffffff1673ffffffffffffffffffffffffffffffffffffffff16815260200190815260200160002060009054906101000a900460ff165b151561147157600080fd5b60006002600083815260200190815260200160002060006101000a81548160ff02191690831515021790555050565b6000809054906101000a900473ffffffffffffffffffffffffffffffffffffffff1673ffffffffffffffffffffffffffffffffffffffff163373ffffffffffffffffffffffffffffffffffffffff161415156114fb57600080fd5b600073ffffffffffffffffffffffffffffffffffffffff168173ffffffffffffffffffffffffffffffffffffffff161415151561153757600080fd5b8073ffffffffffffffffffffffffffffffffffffffff166000809054906101000a900473ffffffffffffffffffffffffffffffffffffffff1673ffffffffffffffffffffffffffffffffffffffff167f8be0079c531659141344cd1fd0a4f28419497f9722a3daafe3b4186f6b6457e060405160405180910390a3806000806101000a81548173ffffffffffffffffffffffffffffffffffffffff021916908373ffffffffffffffffffffffffffffffffffffffff16021790555050565b60011515600460008373ffffffffffffffffffffffffffffffffffffffff1673ffffffffffffffffffffffffffffffffffffffff168152602001908152602001600020600084815260200190815260200160002060009054906101000a900460ff16151514151561166557600080fd5b6000600460008373ffffffffffffffffffffffffffffffffffffffff1673ffffffffffffffffffffffffffffffffffffffff168152602001908152602001600020600084815260200190815260200160002060006101000a81548160ff0219169083151502179055505050565b828054600181600116156101000203166002900490600052602060002090601f016020900481019282601f1061171357805160ff1916838001178555611741565b82800160010185558215611741579182015b82811115611740578251825591602001919060010190611725565b5b50905061174e9190611752565b5090565b61177491905b80821115611770576000816000905550600101611758565b5090565b905600a165627a7a7230582021bc35d5878109818ba18712ff92c2fe19a9cf68bdea3ed574e07c882d16e6b70029",
  "source": "pragma solidity ^0.4.23;\n\nimport './lib/ERC20.sol';\nimport './lib/Ownable.sol';\nimport './lib/SafeMath.sol';\n\n\ncontract Library is Ownable {\n  using SafeMath for uint256;\n\n  event NewBook(string title);\n\n  mapping (address => bool) \t\t\tpublic librarians;\n  mapping (uint => bool) \t\t\t\t\tpublic bookInLibrary;\n  mapping (uint => address) \t\t\tpublic bookToOwner;\n\n  mapping (address => mapping (uint => bool)) \t\tpublic bookCheckedOutTo;\n  mapping (uint => BookHistory[]) public bookHistory;\n\n\n // create array with book history, append for each action that occurs\n  struct BookHistory {\n    string action;\n    uint256 time;\n    address owner;\n  }\n\n  struct Book {\n    string title;\n  }\n\n  BookHistory[] public bookHistories;\n  Book[] public books;\n\n\n  constructor() public {\n    owner = msg.sender;\n  }\n\n  modifier onlyLibrarian {\n    require(msg.sender == owner || librarians[msg.sender]);\n    _;\n  }\n\n \tfunction createBook(string _title) public {\n    uint256 id = books.push(Book(_title)) - 1;\n    bookHistory[id].push(BookHistory(\"created\", now, msg.sender));\n    bookToOwner[id] = msg.sender;\n    emit NewBook(_title);\n \t}\n\n  function addBookToLibrary(uint _bookId) onlyLibrarian public {\n  \tbookInLibrary[_bookId] = true;\n  }\n\n  function removeBookFromLibrary(uint _bookId) onlyLibrarian public {\n  \tbookInLibrary[_bookId] = false;\n\t}\n\n  function checkBookOut(uint _bookId, address _bookUser) onlyLibrarian public {\n  \trequire(bookInLibrary[_bookId] == true);\n  \tbookCheckedOutTo[_bookUser][_bookId] = true;\n  }\n\n  function checkBookIn(uint _bookId, address _bookUser) public {\n  \trequire(bookCheckedOutTo[_bookUser][_bookId] == true);\n  \tbookCheckedOutTo[_bookUser][_bookId] = false;\n  }\n\n  function viewBookHistory(uint _bookId, uint _index) public returns(string, uint256, address) {\n  \t// look up book\n  \t// return history \n  \treturn (bookHistory[_bookId][_index].action, bookHistory[_bookId][_index].time, bookHistory[_bookId][_index].owner);\n  }\n\n  function addBookHistory(uint _bookId, string _action) public {\n  \t// change msg.sender to owner\n  \tbookHistory[_bookId].push(BookHistory(_action, now, bookToOwner[_bookId]));\n  }\n\n  function changeBookOwner(uint _bookId, address _newOwner) public  {\n  \trequire(bookToOwner[_bookId] == msg.sender);\n  \tbookToOwner[_bookId] = _newOwner;\n  }\n}\n\n\n\n\n",
  "sourcePath": "/Users/AlexGeorge/Desktop/DexBrokerage/A3_project/contracts/Library.sol",
  "compiler": {
    "name": "solc",
    "version": "0.4.24+commit.e67f0147.Emscripten.clang"
  },
  "schemaVersion": "2.0.1",
  "updatedAt": "2018-08-11T23:14:15.760Z"
}